:020000040800F2
:1000000000500020F11D00080D1C0008131C000802
:10001000191C00081F1C0008251C00080000000017
:100020000000000000000000000000002B1C000881
:10003000371C000800000000431C00084F1C00088B
:10004000391E0008391E0008391E0008391E000834
:10005000391E0008391E0008391E0008391E000824
:10006000391E0008391E0008391E0008391E000814
:10007000391E0008391E0008391E0008391E000804
:10008000391E0008391E0008391E0008391E0008F4
:10009000391E00085D1C0008391E0008391E0008C2
:1000A000391E0008391E0008391E0008391E0008D4
:1000B000391E0008391E0008391E0008391E0008C4
:1000C000391E0008391E0008391E0008391E0008B4
:1000D000391E0008391E0008391E0008391E0008A4
:1000E000391E0008391E0008391E000800000000F3
:1000F0000000000000000000000000000000000000
:0C01000000000000000000005FF808F1A3
:1001100010B5054C237833B9044B13B10448AFF341
:1001200000800123237010BDE801002000000000C2
:100130003C74000808B5034B1BB103490348AFF3F7
:10014000008008BD00000000EC0100203C740008A5
:10015000034613F8012B002AFBD1181A0138704707
:1001600081F0004102E000BF83F0004330B54FEA68
:1001700041044FEA430594EA050F08BF90EA020FD5
:100180001FBF54EA000C55EA020C7FEA645C7FEA68
:10019000655C00F0E2804FEA5454D4EB5555B8BF8B
:1001A0006D420CDD2C4480EA020281EA030382EAFC
:1001B000000083EA010180EA020281EA0303362D8E
:1001C00088BF30BD11F0004F4FEA01314FF4801C61
:1001D0004CEA113102D0404261EB410113F0004F73
:1001E0004FEA03334CEA133302D0524263EB43032A
:1001F00094EA050F00F0A780A4F10104D5F1200EC8
:100200000DDB02FA0EFC22FA05F2801841F1000122
:1002100003FA0EF2801843FA05F359410EE0A5F1F6
:1002200020050EF1200E012A03FA0EFC28BF4CF027
:10023000020C43FA05F3C01851EBE37101F00045DD
:1002400007D54FF0000EDCF1000C7EEB00006EEBEA
:100250000101B1F5801F1BD3B1F5001F0CD3490874
:100260005FEA30004FEA3C0C04F101044FEA4452CB
:1002700012F5800F80F09A80BCF1004F08BF5FEA52
:10028000500C50F1000041EB045141EA050130BD32
:100290005FEA4C0C404141EB0101013C28BFB1F544
:1002A000801FE9D291F0000F04BF01460020B1FA8F
:1002B00081F308BF2033A3F10B03B3F120020CDA62
:1002C0000C3208DD02F1140CC2F10C0201FA0CF040
:1002D00021FA02F10CE002F11402D8BFC2F1200CA5
:1002E00001FA02F120FA0CFCDCBF41EA0C0190405B
:1002F000E41AA2BF01EB0451294330BD6FEA0404A4
:100300001F3C1CDA0C340EDC04F11404C4F120028E
:1003100020FA04F001FA02F340EA030021FA04F3A0
:1003200045EA030130BDC4F10C04C4F1200220FAF7
:1003300002F001FA04F340EA0300294630BD21FA35
:1003400004F0294630BD94F0000F83F4801306BFFB
:1003500081F480110134013D4EE77FEA645C18BFEF
:100360007FEA655C29D094EA050F08BF90EA020F86
:1003700005D054EA000C04BF1946104630BD91EA7E
:10038000030F1EBF0021002030BD5FEA545C05D181
:100390004000494128BF41F0004130BD14F58004C0
:1003A0003CBF01F5801130BD01F0004545F0FE4134
:1003B00041F470014FF0000030BD7FEA645C1ABF69
:1003C000194610467FEA655C1CBF0B46024650EAA0
:1003D000013406BF52EA033591EA030F41F40021CC
:1003E00030BD00BF90F0000F04BF0021704730B552
:1003F0004FF4806404F132044FF000054FF0000127
:1004000050E700BF90F0000F04BF0021704730B5E7
:100410004FF4806404F1320410F0004548BF4042BC
:100420004FF000013EE700BF42004FEAE2014FEA11
:1004300031014FEA02701FBF12F07F4393F07F4FEC
:1004400081F06051704732F07F4208BF704793F0EF
:100450007F4F04BF41F40021704730B54FF4607402
:1004600001F0004521F000411CE700BF50EA010205
:1004700008BF704730B54FF000050AE050EA0102AE
:1004800008BF704730B511F0004502D5404261EB1E
:1004900041014FF4806404F132045FEA915C3FF45F
:1004A000D8AE4FF003025FEADC0C18BF03325FEAFC
:1004B000DC0C18BF033202EBDC02C2F1200300FAAD
:1004C00003FC20FA02F001FA03FE40EA0E0021FAD2
:1004D00002F11444BDE600BF70B54FF0FF0C4CF4C0
:1004E000E06C1CEA11541DBF1CEA135594EA0C0F72
:1004F00095EA0C0F00F0DEF82C4481EA030621EAAD
:100500004C5123EA4C5350EA013518BF52EA0335E7
:1005100041F4801143F4801338D0A0FB02CE4FF099
:100520000005E1FB02E506F00042E0FB03E54FF0C9
:100530000006E1FB03569CF0000F18BF4EF0010EC1
:10054000A4F1FF04B6F5007F64F5407404D25FEABD
:100550004E0E6D4146EB060642EAC62141EA555170
:100560004FEAC52040EA5E504FEACE2EB4F1FD0CB2
:1005700088BFBCF5E06F1ED8BEF1004F08BF5FEA30
:10058000500E50F1000041EB045170BD06F00046E2
:1005900046EA010140EA020081EA0301B4EB5C048F
:1005A000C2BFD4EB0C0541EA045170BD41F4801187
:1005B0004FF0000E013C00F3AB8014F1360FDEBFAC
:1005C000002001F0004170BDC4F10004203C35DA88
:1005D0000C341BDC04F11404C4F1200500FA05F30B
:1005E00020FA04F001FA05F240EA020001F00042AC
:1005F00021F0004110EBD37021FA04F642EB060122
:100600005EEA430E08BF20EAD37070BDC4F10C044B
:10061000C4F1200500FA04F320FA05F001FA04F20F
:1006200040EA020001F0004110EBD37041F10001FB
:100630005EEA430E08BF20EAD37070BDC4F1200506
:1006400000FA05F24EEA020E20FA04F301FA05F26E
:1006500043EA020321FA04F001F0004121FA04F216
:1006600020EA020000EBD3705EEA430E08BF20EAE6
:10067000D37070BD94F0000F0FD101F00046400020
:1006800041EB010111F4801F08BF013CF7D041EAA2
:10069000060195F0000F18BF704703F000465200A6
:1006A00043EB030313F4801F08BF013DF7D043EA77
:1006B0000603704794EA0C0F0CEA135518BF95EA2D
:1006C0000C0F0CD050EA410618BF52EA4306D1D1B4
:1006D00081EA030101F000414FF0000070BD50EAD3
:1006E000410606BF1046194652EA430619D094EA5D
:1006F0000C0F02D150EA013613D195EA0C0F05D147
:1007000052EA03361CBF104619460AD181EA03019A
:1007100001F0004141F0FE4141F470014FF0000052
:1007200070BD41F0FE4141F4780170BD70B54FF0ED
:10073000FF0C4CF4E06C1CEA11541DBF1CEA13556D
:1007400094EA0C0F95EA0C0F00F0A7F8A4EB05044F
:1007500081EA030E52EA03354FEA013100F0888046
:100760004FEA03334FF0805545EA131343EA12630F
:100770004FEA022245EA111545EA10654FEA0026C4
:100780000EF000419D4208BF964244F1FD0404F57D
:10079000407402D25B084FEA3202B61A65EB0305D9
:1007A0005B084FEA32024FF480104FF4002CB6EB96
:1007B000020E75EB030E22BFB61A754640EA0C0016
:1007C0005B084FEA3202B6EB020E75EB030E22BF56
:1007D000B61A754640EA5C005B084FEA3202B6EB97
:1007E000020E75EB030E22BFB61A754640EA9C0056
:1007F0005B084FEA3202B6EB020E75EB030E22BF26
:10080000B61A754640EADC0055EA060E18D04FEAE3
:10081000051545EA16754FEA06164FEAC30343EA83
:1008200052734FEAC2025FEA1C1CC0D111F4801F50
:100830000BD141EA00014FF000004FF0004CB6E749
:1008400011F4801F04BF01430020B4F1FD0C88BFE8
:10085000BCF5E06F3FF6AFAEB5EB030C04BFB6EBF3
:10086000020C5FEA500C50F1000041EB045170BDE6
:100870000EF0004E4EEA113114EB5C04C2BFD4EB13
:100880000C0541EA045170BD41F480114FF0000E97
:10089000013C90E645EA060E8DE60CEA135594EA13
:1008A0000C0F08BF95EA0C0F3FF43BAF94EA0C0F16
:1008B0000AD150EA01347FF434AF95EA0C0F7FF48B
:1008C00025AF104619462CE795EA0C0F06D152EADF
:1008D00003353FF4FDAE1046194622E750EA4106C3
:1008E00018BF52EA43067FF4C5AE50EA41047FF4D4
:1008F0000DAF52EA43057FF4EBAE12E74FF0FF3C39
:1009000006E000BF4FF0010C02E000BF4FF0010C09
:100910004DF804CD4FEA410C7FEA6C5C4FEA430C82
:1009200018BF7FEA6C5C1BD001B050EA410C0CBFD1
:1009300052EA430C91EA030F02BF90EA020F002033
:10094000704710F1000F91EA030F58BF994208BF9A
:1009500090422CBFD8176FEAE37040F00100704757
:100960004FEA410C7FEA6C5C02D150EA013C07D1AE
:100970004FEA430C7FEA6C5CD6D152EA033CD3D0F9
:100980005DF8040B704700BF8446104662468C46F3
:100990001946634600E000BF01B5FFF7B7FF002826
:1009A00048BF10F1000F01BD4DF808EDFFF7F4FF4F
:1009B0000CBF012000205DF808FB00BF4DF808EDDA
:1009C000FFF7EAFF34BF012000205DF808FB00BFFD
:1009D0004DF808EDFFF7E0FF94BF012000205DF81F
:1009E00008FB00BF4DF808EDFFF7CEFF94BF0120D4
:1009F00000205DF808FB00BF4DF808EDFFF7C4FFCD
:100A000034BF012000205DF808FB00BF4FEA410C15
:100A10007FEA6C5C02D150EA013C0AD14FEA430CF8
:100A20007FEA6C5C02D152EA033C02D14FF0000035
:100A300070474FF0010070474FEA410212F5001273
:100A400015D211D56FF47873B3EB625212D94FEA15
:100A5000C12343F0004343EA505311F0004F23FAFF
:100A600002F018BF404270474FF00000704750EA54
:100A7000013005D111F0004008BF6FF00040704711
:100A80004FF00000704700BF4FEA4102B2F1E0436F
:100A900024BFB3F5001CDCF1FE5C0DD901F0004C65
:100AA0004FEAC0024CEA5070B2F1004F40EB8300B5
:100AB00008BF20F00100704711F0804F21D113F1E1
:100AC0003872BCBF01F00040704741F480114FEA1A
:100AD0005252C2F11802C2F1200C10FA0CF320FAA3
:100AE00002F018BF40F001004FEAC1234FEAD323C0
:100AF00003FA0CFC40EA0C0023FA02F34FEA43032A
:100B0000CCE77FEA625307D150EA01331EBF4FF0B2
:100B1000FE4040F44000704701F0004040F0FE40CD
:100B200040F40000704700BF80F0004002E000BFCA
:100B300081F0004142001FBF5FEA410392EA030FC8
:100B40007FEA226C7FEA236C6AD04FEA1262D2EB12
:100B50001363C1BFD218414048404140B8BF5B4217
:100B6000192B88BF704710F0004F40F4000020F0B0
:100B70007F4018BF404211F0004F41F4000121F0C6
:100B80007F4118BF494292EA030F3FD0A2F1010210
:100B900041FA03FC10EB0C00C3F1200301FA03F14E
:100BA00000F0004302D5494260EB4000B0F5000F71
:100BB00013D3B0F1807F06D340084FEA310102F130
:100BC0000102FE2A51D2B1F1004F40EBC25008BFE2
:100BD00020F0010040EA03007047490040EB0000AC
:100BE000013A28BFB0F5000FEDD2B0FA80FCACF1AD
:100BF000080CB2EB0C0200FA0CF0AABF00EBC250DA
:100C000052421843BCBFD0401843704792F0000FC7
:100C100081F4000106BF80F400000132013BB5E71A
:100C20004FEA41037FEA226C18BF7FEA236C21D090
:100C300092EA030F04D092F0000F08BF08467047F5
:100C400090EA010F1CBF0020704712F07F4F04D1C3
:100C5000400028BF40F00040704712F100723CBFD6
:100C600000F50000704700F0004343F0FE4040F400
:100C7000000070477FEA226216BF08467FEA2363BE
:100C80000146420206BF5FEA412390EA010F40F4A9
:100C9000800070474FF0000304E000BF10F00043F5
:100CA00048BF40425FEA000C08BF704743F09643DC
:100CB00001464FF000001CE050EA010208BF7047F7
:100CC0004FF000030AE000BF50EA010208BF70477E
:100CD00011F0004302D5404261EB41015FEA010C93
:100CE00002BF84460146002043F0B64308BFA3F18B
:100CF0008053A3F50003BCFA8CF2083AA3EBC2536D
:100D000010DB01FA02FC634400FA02FCC2F120028B
:100D1000BCF1004F20FA02F243EB020008BF20F0C2
:100D20000100704702F1200201FA02FCC2F1200228
:100D300050EA4C0021FA02F243EB020008BF20EA1D
:100D4000DC7070474FF0FF0C1CEAD0521EBF1CEA4B
:100D5000D15392EA0C0F93EA0C0F6FD01A4480EA39
:100D6000010C400218BF5FEA41211ED04FF0006322
:100D700043EA501043EA5111A0FB01310CF000404E
:100D8000B1F5000F3EBF490041EAD3715B0040EA74
:100D9000010062F17F02FD2A1DD8B3F1004F40EB44
:100DA000C25008BF20F00100704790F0000F0CF017
:100DB000004C08BF49024CEA502040EA51207F3ADB
:100DC000C2BFD2F1FF0340EAC250704740F40000B6
:100DD0004FF00003013A5DDC12F1190FDCBF00F0A7
:100DE00000407047C2F10002410021FA02F1C2F155
:100DF000200200FA02FC5FEA310040F1000053EAF1
:100E00004C0308BF20EADC70704792F0000F00F03E
:100E1000004C02BF400010F4000F013AF9D040EA44
:100E20000C0093F0000F01F0004C02BF490011F4D8
:100E3000000F013BF9D041EA0C018FE70CEAD153D6
:100E400092EA0C0F18BF93EA0C0F0AD030F0004C56
:100E500018BF31F0004CD8D180EA010000F000400A
:100E6000704790F0000F17BF90F0004F084691F0C8
:100E7000000F91F0004F14D092EA0C0F01D1420202
:100E80000FD193EA0C0F03D14B0218BF084608D1CB
:100E900080EA010000F0004040F0FE4040F4000015
:100EA000704740F0FE4040F4400070474FF0FF0CA8
:100EB0001CEAD0521EBF1CEAD15392EA0C0F93EAEF
:100EC0000C0F69D0A2EB030280EA010C49024FEA41
:100ED000402037D04FF0805343EA111143EA1013FA
:100EE0000CF000408B4238BF5B0042F17D024FF4B2
:100EF000000C8B4224BF5B1A40EA0C00B3EB510F8D
:100F000024BFA3EB510340EA5C00B3EB910F24BF75
:100F1000A3EB910340EA9C00B3EBD10F24BFA3EBFA
:100F2000D10340EADC001B0118BF5FEA1C1CE0D1C2
:100F3000FD2A3FF650AF8B4240EBC25008BF20F075
:100F4000010070470CF0004C4CEA50207F32C2BFC9
:100F5000D2F1FF0340EAC250704740F400004FF066
:100F60000003013A37E792F0000F00F0004C02BF97
:100F7000400010F4000F013AF9D040EA0C0093F061
:100F8000000F01F0004C02BF490011F4000F013BBB
:100F9000F9D041EA0C0195E70CEAD15392EA0C0F23
:100FA00008D142027FF47DAF93EA0C0F7FF470AF5B
:100FB000084676E793EA0C0F04D14B023FF44CAF9E
:100FC00008466EE730F0004C18BF31F0004CCAD133
:100FD00030F000427FF45CAF31F000437FF43CAF6F
:100FE0005FE700BF4FF0FF3C06E000BF4FF0010C91
:100FF00002E000BF4FF0010C4DF804CD4FEA400273
:101000004FEA41037FEA226C18BF7FEA236C11D0BC
:1010100001B052EA530C18BF90EA010F58BFB2EB6F
:10102000030088BFC81738BF6FEAE17018BF40F0EF
:10103000010070477FEA226C02D15FEA402C05D1A3
:101040007FEA236CE4D15FEA412CE1D05DF8040B28
:10105000704700BF844608466146FFE70FB5FFF7BB
:10106000C9FF002848BF10F1000F0FBD4DF808ED73
:10107000FFF7F4FF0CBF012000205DF808FB00BF64
:101080004DF808EDFFF7EAFF34BF012000205DF8BE
:1010900008FB00BF4DF808EDFFF7E0FF94BF01200B
:1010A00000205DF808FB00BF4DF808EDFFF7D2FF08
:1010B00094BF012000205DF808FB00BF4DF808ED4B
:1010C000FFF7C8FF34BF012000205DF808FB00BF18
:1010D00080B58AB000AF264B264A1A60244B4822BE
:1010E0005A60234B00229A60214B0022DA60204B89
:1010F0004FF480321A611E4B00225A611C4B0022B1
:101100001A761B4B00225A76194B00229A76184BFE
:101110000022DA76164B00221A77154B00225A77F6
:10112000134800F017FF0346002B01D000F001FB2D
:1011300001233B6200237B6101233B6100233B6071
:1011400000237B600023BB600023FB600023BB61A6
:101150000123FB613B461946054800F0F6FF0346B4
:10116000002B01D000F0E5FA00BF2837BD4680BD56
:10117000040200200064004080B58AB000AF7860AF
:1011800007F1140300221A605A609A60DA607B68E3
:101190001B68294A93424BD1284BDB69274A43F00D
:1011A0000073D361254BDB6903F000733B613B693E
:1011B000224B9B69214A43F0080393611F4B9B69B3
:1011C00003F00803FB60FB684FF480737B6100232E
:1011D000BB610023FB6107F114031946184801F0B5
:1011E00039FD4FF400737B610223BB6103233B6233
:1011F00007F114031946124801F02CFD114B5B68EE
:101200007B627B6A23F4C0437B627B6A43F0E063CA
:101210007B627B6A43F480437B620A4A7B6A536049
:1012200000220021152001F0DEFC152001F0F7FC62
:1012300000BF2837BD4680BD00640040001002405A
:10124000000C01400000014080B485B000AF144B99
:101250009B69134A43F020039361114B9B6903F090
:101260002003FB60FB680E4B9B690D4A43F00403AF
:1012700093610B4B9B6903F00403BB60BB68084B95
:101280009B69074A43F008039361054B9B6903F090
:1012900008037B607B6800BF1437BD4680BC704785
:1012A0000010024080B500AF124B134A1A60114B78
:1012B000124A5A600F4B00229A600E4B0022DA60ED
:1012C0000C4B4FF480421A610A4B00225A61094BC1
:1012D00000229A61074B0022DA61064B00221A6253
:1012E000044801F03BFE0346002B01D000F021FA38
:1012F00000BF80BD2C02002000540040A0860100E9
:1013000080B588B000AF786007F1100300221A6042
:101310005A609A60DA607B681B68154A934223D151
:10132000144B9B69134A43F008039361114B9B696B
:1013300003F00803FB60FB68C0233B6112237B6161
:101340000323FB6107F1100319460B4801F082FCEF
:10135000084BDB69074A43F40013D361054BDB6993
:1013600003F40013BB60BB6800BF2037BD4680BDDF
:101370000054004000100240000C014080B500AF56
:1013800000F062FD00F090F9FFF75EFFFFF7A0FEAE
:10139000FFF788FF00F058FD00F086F9FFF754FFD3
:1013A000FFF796FEFFF77EFF00F000FA002000F046
:1013B00067FA00F07DFA044800F090FF102102481F
:1013C00001F0F1F8FEE700BF040200200000000079
:1013D0002DE9F04186B002AF7860A34BA34A01210A
:1013E000786800F0BFFFA04B1B781B021AB29E4B1F
:1013F0005B781BB213431AB29D4B1A809A4B9B78B1
:101400001B021AB2984BDB781BB213431AB2994BEA
:101410001A80954B1B791B021AB2934B5B791BB256
:1014200013431AB2944B1A80924BB3F9003018460A
:10143000FFF734FC03461846FEF7F6FF04460D4658
:101440008D4BB3F900301846FFF728FC03461846C9
:10145000FEF7EAFF02460B462046294605F092FCBD
:101460004FF00002854BFFF737F802460B46104657
:1014700019467BA3D3E90023FFF758F902460B4630
:1014800010461946FFF700FB0346FB60784BB3F9A3
:1014900000301846FFF702FC034683F0004318466D
:1014A000FEF7C2FF04460D46724BB3F900301846F2
:1014B000FFF7F4FB06466F4BB3F900301846FFF711
:1014C000EDFB034619463046FFF73CFC03469846C1
:1014D000694BB3F900301846FFF7E0FB0646664B50
:1014E000B3F900301846FFF7D9FB034619463046DA
:1014F000FFF728FC034619464046FFF71BFB03464F
:101500001846FEF791FF02460B461046194605F0B5
:101510003BFC02460B462046294605F033FC4FF0C3
:101520000002564BFEF7D8FF02460B4610461946FE
:101530004BA3D3E90023FFF7F9F802460B46104608
:101540001946FFF7A1FA0346BB60002000F098F9A6
:10155000474BB3F900301A4649494A4803F0C6FAE6
:101560000021002000F0D6FA474B012200920ECB5A
:10157000444800F0A9FA3F4BB3F900301A464349FA
:10158000404803F0B3FA0C21002000F0C3FA3E4BB0
:10159000012200920ECB3B4800F096FA364BB3F98D
:1015A00000301A463A49374803F0A0FA18210020C3
:1015B00000F0B0FA344B012200920ECB314800F01B
:1015C00083FAF868FEF730FF02460B4631492D4892
:1015D00003F08CFA0021402000F09CFA2E4B0122EF
:1015E00000920ECB274800F06FFAB868FEF71CFF98
:1015F00002460B462949234803F078FA0A21402085
:1016000000F088FA244B012200920ECB1D4800F016
:101610005BFAFB6823F0004321491846FFF74EFDB3
:101620000346002B09D1BB6823F000431C49184630
:10163000FFF744FD0346002B0AD02421002000F0D0
:1016400069FA114B012200920ECB164800F03CFAC9
:1016500000F02EF900BF1037BD46BDE8F08100BF95
:10166000182D4454FB2109409C02002080020020D8
:10167000A4020020A6020020A802002000806640EC
:1016800058740008AC020020FC8100086074000857
:101690006874000870740008F08100087C74000809
:1016A0000000F0418874000880B590B000AF07F1E9
:1016B000180328220021184603F095FA3B1D00224A
:1016C0001A605A609A60DA601A610123BB614FF4B4
:1016D0008033FB6100233B620123BB6202237B63F7
:1016E0004FF48033BB634FF4E013FB6307F118033F
:1016F000184602F0DFF80346002B01D000F019F87D
:101700000F237B600223BB600023FB604FF48063E8
:101710003B6100237B613B1D0221184602F04CFB1C
:101720000346002B01D000F004F800BF4037BD464F
:1017300080BD80B400AF72B600BFFEE780B400AFDA
:1017400000BFBD4680BC704780B586B004AF03467D
:10175000FB714FF0FF33029301230193FB1D0093B4
:10176000012300227821034801F03CFD00BF083727
:10177000BD4680BD2C02002080B586B004AF7860E5
:1017800039603B689BB24FF0FF32029201937B6855
:101790000093012340227821034801F023FD00BF7C
:1017A0000837BD4680BD00BF2C02002080B500AFC9
:1017B000FFF7C4FF642000F0A9FB002000F0D6F979
:1017C0002020FFF7C1FF0020FFF7BEFFB020FFF78A
:1017D000BBFFC820FFF7B8FF0020FFF7B5FF1020C0
:1017E000FFF7B2FF4020FFF7AFFFFF2000F0AAF99C
:1017F000A120FFF7A9FFA620FFF7A6FFA820FFF76B
:10180000A3FF3F20FFF7A0FFA420FFF79DFFD320F9
:10181000FFF79AFF0020FFF797FFD520FFF794FF0F
:10182000F020FFF791FFD920FFF78EFF2220FFF76E
:101830008BFFDA20FFF788FF1220FFF785FFDB2000
:10184000FFF782FF2020FFF77FFF8D20FFF77CFF4F
:101850001420FFF779FF012000F088F9002000F044
:101860000FF800F025F8054B00221A80034B0022E8
:101870005A80024B01221A7100BF80BDC0060020B1
:1018800080B582B000AF0346FB71FB79002B01D11C
:10189000002300E0FF234FF480621946034803F061
:1018A000A2F900BF0837BD4680BD00BFC0020020BE
:1018B00080B582B000AF0023FB7116E0FB79503B8E
:1018C000DBB21846FFF740FF0020FFF73DFF102076
:1018D000FFF73AFFFB79DB01084A134480211846E1
:1018E000FFF74AFFFB790133FB71FB79072BE5D941
:1018F00000BF00BF0837BD4680BD00BFC00200204A
:1019000080B483B000AF0346FB710B46BB71134636
:101910007B7197F90730002B3DDBBB793F2B3AD821
:101920007B79012B1AD1FA79BB79DB08D8B203464F
:10193000DB0113441A4AD35C5AB2BB7903F00703A4
:10194000012101FA03F35BB2134359B2FA7903465A
:10195000DB011344C9B2124AD1541DE0FA79BB79B4
:10196000DB08D8B20346DB0113440D4AD35C5AB2FC
:10197000BB7903F00703012101FA03F35BB2DB43F8
:101980005BB2134059B2FA790346DB011344C9B282
:10199000034AD15400E000BF0C37BD4680BC7047FD
:1019A000C002002090B589B000AF0446384680E8F8
:1019B0000E002346FB73FB7B1F2B02D9FB7B7E2B88
:1019C00001D9002379E0BB68002B05D0BA68FB7B06
:1019D000203B13441B7800E03B78FB75394B1B8898
:1019E0001A46FB7D1344802B06DC364B5B881A4677
:1019F0007B781344402B01DD00235EE00023FB6174
:101A00004DE07A68FB7B203B797801FB03F31946B4
:101A1000FB690B445B0013441B883B610023BB61E3
:101A200036E03A69BB6902FA03F303F40043002B82
:101A300013D0244B1B88DAB2BB69DBB21344D8B293
:101A4000204B5B88DAB2FB69DBB21344DBB297F858
:101A500030201946FFF754FF17E01A4B1B88DAB203
:101A6000BB69DBB21344D8B2164B5B88DAB2FB69B0
:101A7000DBB21344D9B297F83030002B0CBF0123EE
:101A80000023DBB21A46FFF73BFFBB690133BB61A2
:101A9000FB7DBA699A42C4D3FB690133FB617B7851
:101AA0001A46FB699342ACD3064B1A88FB7D9BB266
:101AB00013449AB2034B1A80FB7B18462437BD4669
:101AC00090BD00BFC006002080B586B002AFF860B0
:101AD000384680E80E0013E0FB6818783B7E0093E0
:101AE0003B460ECBFFF75EFF03461A46FB681B78AA
:101AF0009A4202D0FB681B7808E0FB680133FB6068
:101B0000FB681B78002BE7D1FB681B781846103761
:101B1000BD4680BD80B483B000AF03460A46FB716A
:101B20001346BB71FB799AB2054B1A80BB799AB206
:101B3000034B5A8000BF0C37BD4680BC704700BFC6
:101B4000C006002080B584B000AF0346FB7181233E
:101B5000FB73FB7B1846FFF7F7FDFB791846FFF791
:101B6000F3FD00BF1037BD4680BD000080B584B0D6
:101B700000AF0346FB71FB79002B05D0AF23FB734D
:101B8000084B01225A7104E0AE23FB73054B00227F
:101B90005A71FB7B1846FFF7D7FD00BF1037BD46D3
:101BA00080BD00BFC006002080B485B000AF154BDB
:101BB0009B69144A43F001039361124B9B6903F044
:101BC0000103BB60BB680F4BDB690E4A43F08053D7
:101BD000D3610C4BDB6903F080537B607B680A4B5D
:101BE0005B68FB60FB6823F0E063FB60FB6843F02D
:101BF0000073FB60044AFB68536000BF1437BD46A6
:101C000080BC7047001002400000014080B400AF6B
:101C1000FEE780B400AFFEE780B400AFFEE780B41B
:101C200000AFFEE780B400AFFEE780B400AF00BFB6
:101C3000BD4680BC704780B400AF00BFBD4680BCCD
:101C4000704780B400AF00BFBD4680BC704780B510
:101C500000AF00F03FF900BF80BD000080B500AFCD
:101C6000024800F0C5FC00BF80BD00BF0402002098
:101C700080B400AF01231846BD4680BC704780B5D4
:101C800082B000AF7860396003F000F80346162296
:101C90001A604FF0FF3318460837BD4680BD80B547
:101CA00082B000AF78604FF0FF317868FFF7E7FF50
:101CB000FEE780B586B000AFF860B9607A600023B7
:101CC0007B610AE0AFF300800146BB685A1CBA6032
:101CD000CAB21A707B6901337B617A697B689A4268
:101CE000F0DB7B6818461837BD4680BD80B586B0EE
:101CF00000AFF860B9607A6000237B6109E0BB68DF
:101D00005A1CBA601B781846AFF300807B69013318
:101D10007B617A697B689A42F1DB7B6818461837E9
:101D2000BD4680BD80B483B000AF78604FF0FF3314
:101D300018460C37BD4680BC704780B483B000AFF6
:101D4000786039603B684FF400525A6000231846AF
:101D50000C37BD4680BC704780B483B000AF78605C
:101D6000012318460C37BD4680BC704780B485B04F
:101D700000AFF860B9607A60002318461437BD469A
:101D800080BC704780B586B000AF7860144A154BB0
:101D9000D31A7B617B693B61134B1B68002B02D11B
:101DA000114B124A1A60104B1A687B6813443A6947
:101DB0009A4207D202F06AFF03460C221A604FF0E3
:101DC000FF3309E0084B1B68FB60074B1A687B6810
:101DD0001344054A1360FB6818461837BD4680BD9A
:101DE0000050002000040000C80600202008002049
:101DF00000F023F80B480C490C4A002302E0D458A9
:101E0000C4500433C4188C42F9D3094A094C002346
:101E100001E013600432A242FBD302F03DFFFFF762
:101E2000ADFA704700000020E8010020208600087D
:101E3000E80100201C080020FEE780B400AF00BFCE
:101E4000BD4680BC7047000080B500AF084B1B68E2
:101E5000074A43F010031360032000F0B9FE0F207F
:101E600000F008F8FFF7A0FE0023184680BD00BF71
:101E70000020024080B582B000AF7860124B1A6833
:101E8000124B1B7819464FF47A73B3FBF1F3B2FB94
:101E9000F3F3184600F0D1FE0346002B01D00123D6
:101EA0000EE07B680F2B0AD8002279684FF0FF30D4
:101EB00000F099FE064A7B681360002300E00123CE
:101EC00018460837BD4680BD0000002008000020ED
:101ED0000400002080B400AF054B1B781A46054B68
:101EE0001B681344034A136000BFBD4680BC7047A3
:101EF00008000020CC06002080B400AF024B1B6815
:101F00001846BD4680BC7047CC06002080B584B022
:101F100000AF7860FFF7F0FFB8607B68FB60FB689C
:101F2000B3F1FF3F05D00A4B1B781A46FB681344F8
:101F3000FB6000BFFFF7E0FF0246BB68D31AFA68F8
:101F40009A42F7D800BF00BF1037BD4680BD00BF22
:101F50000800002080B584B000AF78607B68002B5B
:101F600001D10123EDE07B6893F82030DBB2002B38
:101F700002D17868FFF700F97B681B681A687B68F4
:101F80001B6842F001021A60FFF7B6FFF86012E02A
:101F9000FFF7B2FF0246FB68D31A0A2B0BD97B6806
:101FA0005B6A43F400327B685A627B68052283F8DF
:101FB00020200123C5E07B681B685B6803F00103F8
:101FC000002BE5D07B681B681A687B681B6822F0D1
:101FD00002021A60FFF790FFF86012E0FFF78CFF33
:101FE0000246FB68D31A0A2B0BD97B685B6A43F461
:101FF00000327B685A627B68052283F82020012327
:102000009FE07B681B685B6803F00203002BE5D14F
:102010007B681B7E012B08D17B681B681A687B6874
:102020001B6842F080021A6007E07B681B681A6830
:102030007B681B6822F080021A607B685B7E012B44
:1020400008D17B681B681A687B681B6842F04002F5
:102050001A6007E07B681B681A687B681B6822F0BF
:1020600040021A607B689B7E012B08D17B681B684D
:102070001A687B681B6842F020021A6007E07B68E0
:102080001B681A687B681B6822F020021A607B6854
:10209000DB7E012B08D17B681B681A687B681B6894
:1020A00022F010021A6007E07B681B681A687B68E0
:1020B0001B6842F010021A607B681B7F012B08D15D
:1020C0007B681B681A687B681B6842F008021A600C
:1020D00007E07B681B681A687B681B6822F00802AF
:1020E0001A607B685B7F012B08D17B681B681A68CC
:1020F0007B681B6842F004021A6007E07B681B687B
:102100001A687B681B6822F004021A607B689A6870
:102110007B68DB681A437B681B691A437B685B69D1
:1021200042EA03017B685B685A1E7B681B680A43AE
:10213000DA617B6800225A627B68012283F82020E2
:10214000002318461037BD4680BD80B487B000AF6D
:10215000786039607B681B687B617B6893F820300E
:10216000FB74FB7C012B03D0FB7C022B40F0AA808C
:102170007B69D3F8003243F001027B69C3F8002287
:102180003B685B6903F01F03012202FA03F3FB6063
:102190007B69D3F81C22FB68DB431A407B69C3F8D8
:1021A0001C223B68DB69002B23D17B69D3F80C220E
:1021B000FB68DB431A407B69C3F80C223B68DB6891
:1021C00019043B685B689BB23A68526919437B69A2
:1021D000483243F832103B689B6819043B681B681F
:1021E0009AB23B685B690A4379694833DB000B4468
:1021F0005A603B68DB69012B22D17B69D3F80C2242
:10220000FB681A437B69C3F80C223B681B681904FE
:102210003B685B689BB23A68526919437B694832F4
:1022200043F832103B689B6819043B68DB689AB23C
:102230003B685B690A4379694833DB000B445A60A9
:102240003B689B69002B09D17B69D3F80422FB68AA
:10225000DB431A407B69C3F8042207E07B69D3F8AB
:102260000422FB681A437B69C3F804223B681B699C
:10227000002B09D17B69D3F81422FB68DB431A4099
:102280007B69C3F8142207E07B69D3F81422FB684A
:102290001A437B69C3F814223B681B6A012B07D1E0
:1022A0007B69D3F81C22FB681A437B69C3F81C22A4
:1022B0007B69D3F8003223F001027B69C3F8002266
:1022C000002306E07B685B6A43F480227B685A62E5
:1022D000012318461C37BD4680BC704780B584B0CA
:1022E00000AF78607B6893F82030DBB2012B2ED1F1
:1022F0007B68022283F820207B681B681A687B6851
:102300001B6822F001021A60FFF7F6FDF86012E088
:10231000FFF7F2FD0246FB68D31A0A2B0BD97B6844
:102320005B6A43F400327B685A627B68052283F85B
:102330002020012312E07B681B685B6803F0010327
:10234000002BE5D17B6800225A62002306E07B68FF
:102350005B6A43F400227B685A62012318461037F7
:10236000BD4680BD80B487B000AFF860B9607A60C8
:102370003B60FB6893F82030FB75FB7D012B03D09D
:10238000FB7D022B40F00381BB68002B0ED1FB6864
:102390001B68DB6803F00303002B16D1FB685B6A44
:1023A00043F40012FB685A620123F7E0FB681B68E4
:1023B0001B6903F00303002B07D1FB685B6A43F43E
:1023C0000012FB685A620123E8E0FB681A68BB68E8
:1023D0001B331B0113441B6803F004027B689A60E3
:1023E0007B689B68002B0CD1FB681A68BB681B33A9
:1023F0001B0113441B685B0DC3F30A027B681A6060
:102400000BE0FB681A68BB681B331B0113441B6895
:10241000DB0823F060427B685A60FB681A68BB687F
:102420001B331B0113441B6803F002027B68DA6054
:10243000FB681A68BB681B331B01134404331B6819
:1024400003F00803002B03D07B6808221A610BE01D
:10245000FB681A68BB681B331B01134404331B68F9
:1024600003F00F027B681A61FB681A68BB681B33B4
:102470001B01134404331B681B0ADAB27B689A61A0
:10248000FB681A68BB681B331B01134404331B68C9
:102490001B0C9AB27B685A61FB681A68BB681B0107
:1024A000134403F5DC731B68DAB23B681A70FB68EF
:1024B0001A68BB681B01134403F5DC731B681A0A16
:1024C0003B680133D2B21A70FB681A68BB681B0103
:1024D000134403F5DC731B681A0C3B680233D2B259
:1024E0001A70FB681A68BB681B01134403F5DC73A0
:1024F0001B681A0E3B680333D2B21A70FB681A6865
:10250000BB681B01134403F5DE731A683B68043390
:10251000D2B21A70FB681A68BB681B01134403F53A
:10252000DE731B681A0A3B680533D2B21A70FB6867
:102530001A68BB681B01134403F5DE731B681A0C91
:102540003B680633D2B21A70FB681A68BB681B017D
:10255000134403F5DE731B681A0E3B680733D2B2CF
:102560001A70BB68002B08D1FB681B68DA68FB682F
:102570001B6842F02002DA6007E0FB681B681A69FA
:10258000FB681B6842F020021A61002306E0FB682A
:102590005B6A43F48022FB685A62012318461C37A9
:1025A000BD4680BC704780B485B000AF78603960AC
:1025B0007B6893F82030FB73FB7B012B02D0FB7B05
:1025C000022B09D17B681B6859697B681B683A68D4
:1025D0000A435A61002306E07B685B6A43F4802269
:1025E0007B685A62012318461437BD4680BC704789
:1025F00080B58AB000AF786000237B627B681B687F
:102600005B693B627B681B685B68FB617B681B687E
:102610009B68BB617B681B68DB687B617B681B68B0
:102620001B693B617B681B689B69FB603B6A03F02D
:102630000103002B7CD0BB6903F00103002B23D0E6
:102640007B681B6801229A60BB6903F00203002BC0
:1026500003D0786800F083F916E0BB6903F0040347
:10266000002B04D07B6A43F400637B620CE0BB69FF
:1026700003F00803002B04D07B6A43F480537B6291
:1026800002E0786800F086F9BB6903F48073002BE0
:1026900024D07B681B684FF480729A60BB6903F496
:1026A0000073002B03D0786800F062F916E0BB6974
:1026B00003F48063002B04D07B6A43F400537B62F5
:1026C0000CE0BB6903F40063002B04D07B6A43F485
:1026D00080437B6202E0786800F065F9BB6903F42F
:1026E0008033002B24D07B681B684FF480329A60C3
:1026F000BB6903F40033002B03D0786800F041F984
:1027000016E0BB6903F48023002B04D07B6A43F4FA
:1027100000437B620CE0BB6903F40023002B04D070
:102720007B6A43F480337B6202E0786800F044F90E
:102730003B6A03F00803002B0CD07B6903F0100305
:10274000002B07D07B6A43F400737B627B681B68B5
:102750001022DA603B6A03F00403002B0BD07B6984
:1027600003F00803002B06D07B681B680822DA60A0
:10277000786800F033F93B6A03F00203002B09D0BC
:102780007B681B68DB6803F00303002B02D07868CA
:1027900000F01BF93B6A03F04003002B0CD03B69AF
:1027A00003F01003002B07D07B6A43F480637B6245
:1027B0007B681B6810221A613B6A03F02003002B20
:1027C0000BD03B6903F00803002B06D07B681B6825
:1027D00008221A61786800F00AF93B6A03F01003D6
:1027E000002B09D07B681B681B6903F00303002BD7
:1027F00002D07868FEF7ECFD3B6A03F40033002B4F
:102800000BD0FB6903F01003002B06D07B681B681C
:1028100010225A60786800F0F3F83B6A03F48033C2
:10282000002B0BD0FB6903F00803002B06D07B685C
:102830001B6808225A60786800F0EBF83B6A03F4E2
:102840000043002B7BD0FB6903F00403002B72D004
:102850003B6A03F48073002B08D0FB6803F001038C
:10286000002B03D07B6A43F001037B623B6A03F4D5
:102870000073002B08D0FB6803F00203002B03D089
:102880007B6A43F002037B623B6A03F48063002BA4
:1028900008D0FB6803F00403002B03D07B6A43F0ED
:1028A00004037B623B6A03F40063002B43D0FB68A4
:1028B00003F07003002B3ED0FB6803F07003602B25
:1028C0002BD0602B2ED8502B22D0502B2AD8402B27
:1028D00019D0402B26D8302B10D0302B22D8102BDB
:1028E00002D0202B05D01DE07B6A43F008037B62F9
:1028F00019E07B6A43F010037B6214E07B6A43F0CB
:1029000020037B620FE07B6A43F040037B620AE0B6
:102910007B6A43F080037B6205E07B6A43F480734B
:102920007B6200E000BF7B681B689A697B681B685C
:1029300022F070029A617B681B6804225A607B6AED
:10294000002B08D07B685A6A7B6A1A437B685A62FC
:10295000786800F067F800BF2837BD4680BD80B4B6
:1029600083B000AF786000BF0C37BD4680BC7047B5
:1029700080B483B000AF786000BF0C37BD4680BC28
:10298000704780B483B000AF786000BF0C37BD469D
:1029900080BC704780B483B000AF786000BF0C3754
:1029A000BD4680BC704780B483B000AF786000BF84
:1029B0000C37BD4680BC704780B483B000AF7860F0
:1029C00000BF0C37BD4680BC704780B483B000AFF9
:1029D000786000BF0C37BD4680BC704780B483B0C0
:1029E00000AF786000BF0C37BD4680BC704780B434
:1029F00083B000AF786000BF0C37BD4680BC704725
:102A000080B483B000AF786000BF0C37BD4680BC97
:102A1000704780B483B000AF786000BF0C37BD460C
:102A200080BC704780B483B000AF786000BF0C37C3
:102A3000BD4680BC7047000080B485B000AF7860B0
:102A40007B6803F00703FB600C4BDB68BB60BA6874
:102A50004FF6FF031340BB60FB681A02BB681343C9
:102A600043F0BF6343F40033BB60044ABB68D360E8
:102A700000BF1437BD4680BC704700BF00ED00E0CA
:102A800080B400AF044BDB681B0A03F00703184651
:102A9000BD4680BC704700BF00ED00E080B483B04D
:102AA00000AF0346FB7197F90730002B0BDBFB7976
:102AB00003F01F02064997F907305B09012000FA6D
:102AC00002F241F8232000BF0C37BD4680BC70479E
:102AD00000E100E080B483B000AF03463960FB71D1
:102AE00097F90730002B0ADB3B68DAB20C4997F9FB
:102AF00007301201D2B20B4483F800230AE03B688E
:102B0000DAB20849FB7903F00F03043B1201D2B299
:102B10000B441A7600BF0C37BD4680BC704700BF1F
:102B200000E100E000ED00E080B489B000AFF860A3
:102B3000B9607A60FB6803F00703FB61FB69C3F1CE
:102B40000703042B28BF0423BB61FB690433062B56
:102B500002D9FB69033B00E000237B614FF0FF32A9
:102B6000BB6902FA03F3DA43BB681A407B699A40F7
:102B70004FF0FF317B6901FA03F3D9437B680B40C7
:102B8000134318462437BD4680BC704780B582B0D9
:102B900000AF78607B68013BB3F1807F01D30123F4
:102BA0000FE00A4A7B68013B53600F214FF0FF3072
:102BB000FFF790FF054B00229A60044B07221A6032
:102BC000002318460837BD4680BD00BF10E000E076
:102BD00080B582B000AF78607868FFF72DFF00BF46
:102BE0000837BD4680BD80B586B000AF0346B960EA
:102BF0007A60FB7300237B61FFF742FF78617A689C
:102C0000B9687869FFF790FF024697F90F301146CF
:102C10001846FFF75FFF00BF1837BD4680BD80B57F
:102C200082B000AF0346FB7197F907301846FFF7F3
:102C300035FF00BF0837BD4680BD80B582B000AF0C
:102C400078607868FFF7A2FF034618460837BD464C
:102C500080BD000080B48BB000AF78603960002385
:102C60007B6200233B6269E101227B6A02FA03F383
:102C7000FB613B681B68FA691340BB61BA69FB6979
:102C80009A4240F058813B685B689A4A93425ED012
:102C9000984A934275D8984A934258D0964A93429C
:102CA0006FD8964A934252D0944A934269D8944A34
:102CB00093424CD0924A934263D8924A934246D070
:102CC000904A93425DD8122B2AD8122B59D801A2D0
:102CD00052F823F04F2D0008292D00083B2D000845
:102CE0007D2D0008832D0008832D0008832D00080A
:102CF000832D0008832D0008832D0008832D0008F4
:102D0000832D0008832D0008832D0008832D0008E3
:102D1000832D0008832D0008312D0008452D000863
:102D2000794A934213D02CE03B68DB683B6229E090
:102D30003B68DB6804333B6224E03B68DB680833B4
:102D40003B621FE03B68DB680C333B621AE03B6888
:102D50009B68002B02D104233B6213E03B689B6815
:102D6000012B05D108233B627B68FA691A6109E0EF
:102D700008233B627B68FA695A6103E000233B62E7
:102D800000E000BFBB69FF2B01D87B6801E07B68D6
:102D900004337B61BB69FF2B02D87B6A9B0002E096
:102DA0007B6A083B9B003B617B691A680F213B698A
:102DB00001FA03F3DB431A40396A3B6901FA03F372
:102DC0001A437B691A603B685B6803F08053002BF1
:102DD00000F0B1804D4B9B694C4A43F00103936175
:102DE0004A4B9B6903F00103BB60BB68484A7B6A9E
:102DF0009B08023352F82330FB607B6A03F0030325
:102E00009B000F2202FA03F3DB43FA681340FB60D6
:102E10007B68404A934213D07B683F4A93420DD06F
:102E20007B683E4A934207D07B683D4A934201D17A
:102E3000032306E0042304E0022302E0012300E070
:102E400000237A6A02F0030292009340FA68134367
:102E5000FB602F497B6A9B080233FA6841F8232004
:102E60003B685B6803F48013002B06D02D4B9A68F7
:102E70002C49BB6913438B6006E02A4B9A68BB69F7
:102E8000DB43284913408B603B685B6803F4001305
:102E9000002B06D0234BDA682249BB691343CB6071
:102EA00006E0204BDA68BB69DB431E491340CB6068
:102EB0003B685B6803F40033002B06D0194B5A685B
:102EC0001849BB6913434B6006E0164B5A68BB694F
:102ED000DB43144913404B603B685B6803F4803369
:102EE000002B21D00F4B1A680E49BB6913430B60AE
:102EF00021E000BF0000321000003110000022105D
:102F000000002110000012100000111000100240FB
:102F10000000014000080140000C01400010014089
:102F200000140140000401400B4B1A68BB69DB43ED
:102F3000094913400B607B6A01337B623B681A6866
:102F40007B6A22FA03F3002B7FF48EAE00BF00BF32
:102F50002C37BD4680BC70470004014080B584B06A
:102F600000AF78607B68002B01D101232BE17B68E7
:102F700093F83D30DBB2002B06D17B68002283F84A
:102F80003C207868FEF7BCF97B68242283F83D205A
:102F90007B681B681A687B681B6822F001021A6054
:102FA0007B681B681A687B681B6842F400421A60E1
:102FB0007B681B681A687B681B6822F400421A60F1
:102FC00001F042F8F8607B685B68814A934207D859
:102FD000FB68804A934294BF01230023DBB206E0E2
:102FE000FB687D4A934294BF01230023DBB2002B90
:102FF00001D00123E7E0FB68784AA2FB03239B0C86
:10300000BB607B681B685B6823F03F017B681B68C3
:10301000BA680A435A607B681B681B6A23F03F0149
:103020007B685B686A4A934202D8BB68013309E057
:10303000BB684FF4967202FB03F3694AA2FB0323B9
:103040009B0901337A6812680B4313627B681B6823
:10305000DB6923F44F4222F0FF027B685B685C4926
:103060008B4219D8FB68591E7B685B685B00B1FB1B
:10307000F3F3591C40F6FC730B40002B0AD0FB689D
:10308000591E7B685B685B00B1FBF3F30133C3F34C
:103090000B0351E004234FE07B689B68002B11D1A8
:1030A000FB68581E7B6859680B465B000B44B0FBFD
:1030B000F3F30133C3F30B03002B0CBF01230023F5
:1030C000DBB212E0FB68581E7B6859680B469B0018
:1030D0000B4499000B44B0FBF3F30133C3F30B0330
:1030E000002B0CBF01230023DBB2002B01D00123F6
:1030F00022E07B689B68002B0ED1FB68581E7B6822
:1031000059680B465B000B44B0FBF3F30133C3F388
:103110000B0343F400430FE0FB68581E7B685968BB
:103120000B469B000B4499000B44B0FBF3F30133B7
:10313000C3F30B0343F44043796809681343CB613D
:103140007B681B681B6823F0C0017B68DA697B68B9
:103150001B6A1A437B681B680A431A607B681B68FA
:103160009B6823F4034323F0FF037A6811697A68AC
:10317000D26811437A6812680B4393607B681B68BE
:10318000DB6823F0FF017B685A697B689B691A43FF
:103190007B681B680A43DA607B681B681A687B6877
:1031A0001B6842F001021A607B6800221A647B6887
:1031B000202283F83D207B6800221A637B6800226E
:1031C00083F83E20002318461037BD4680BD00BF5F
:1031D000A08601007F841E00FF083D0083DE1B43A4
:1031E000D34D621080B588B002AFF8600846114632
:1031F0001A4603467B810B463B811346FB80FEF754
:103200007BFE7861FB6893F83D30DBB2202B40F009
:10321000D9807B690093192301226D49F86800F079
:1032200071F90346002B01D00223CCE0FB6893F830
:103230003C30012B01D10223C5E0FB68012283F859
:103240003C20FB681B681B6803F00103012B07D0BF
:10325000FB681B681A68FB681B6842F001021A6071
:10326000FB681B681A68FB681B6822F400621A601E
:10327000FB68212283F83D20FB68402283F83E2032
:10328000FB6800221A64FB683A6A5A62FB68BA8CCF
:103290005A85FB685B8D9AB2FB681A85FB684D4ABC
:1032A000DA62F8883A8979897B690193BB6A00936D
:1032B0000346F86800F090F80346002B52D0012333
:1032C00081E07A69B96AF86800F036FA0346002BA3
:1032D0000DD0FB681B6C042B07D1FB681B681A68B8
:1032E000FB681B6842F400721A6001236BE0FB6804
:1032F0005B6A1A78FB681B681A61FB685B6A5A1C78
:10330000FB685A62FB681B8D013B9AB2FB681A8509
:10331000FB685B8D9BB2013B9AB2FB685A85FB68E8
:103320001B685B6903F00403042B1BD1FB681B8D36
:10333000002B17D0FB685B6A1A78FB681B681A6160
:10334000FB685B6A5A1CFB685A62FB681B8D013B79
:103350009AB2FB681A85FB685B8D9BB2013B9AB2FF
:10336000FB685A85FB681B8D002BAAD17A69B96A64
:10337000F86800F029FA0346002B0DD0FB681B6C9F
:10338000042B07D1FB681B681A68FB681B6842F4B2
:1033900000721A60012316E0FB681B681A68FB685C
:1033A0001B6842F400721A60FB68202283F83D20FB
:1033B000FB68002283F83E20FB68002283F83C2053
:1033C000002300E0022318461837BD4680BD00BF29
:1033D000020010000000FFFF80B588B002AFF86067
:1033E000084611461A4603467B810B463B8113462D
:1033F000FB80FB681B681A68FB681B6842F48072DC
:103400001A607B6A00933B6A00224FF00111F86852
:1034100000F078F80346002B0DD0FB681B681B6892
:1034200003F48073B3F5807F03D1FB684FF400721F
:103430001A6403235FE07B89DBB21A46FB681B68D2
:1034400002F0FE021A617B6A3A6A2D49F86800F0C0
:10345000D3F80346002B01D001234CE000237B610D
:10346000FB681B685B697B61FB681B689B697B6110
:103470007B697A6A396AF86800F05EF90346002BC6
:103480000DD0FB681B6C042B07D1FB681B681A6806
:10349000FB681B6842F400721A6001232BE0FB8872
:1034A000012B05D13B89DAB2FB681B681A6121E068
:1034B0003B891B0A9BB2DAB2FB681B681A617A6A05
:1034C000396AF86800F038F90346002B0DD0FB6824
:1034D0001B6C042B07D1FB681B681A68FB681B6810
:1034E00042F400721A60012305E03B89DAB2FB68FE
:1034F0001B681A61002318461837BD4680BD00BFFF
:103500000200010080B584B000AFF860B9603B6094
:103510001346FB7148E03B68B3F1FF3F44D0FEF730
:10352000EBFC0246BB69D31A3A689A4202D33B6865
:10353000002B39D1BB681B0CDBB2012B0DD1FB6812
:103540001B685B69DA43BB6813409BB2002B0CBF5E
:1035500001230023DBB21A460CE0FB681B689B6961
:10356000DA43BB6813409BB2002B0CBF012300233E
:10357000DBB21A46FB799A4216D1FB6800221A6325
:10358000FB68202283F83D20FB68002283F83E2060
:10359000FB681B6C43F02002FB681A64FB68002286
:1035A00083F83C20012323E0BB681B0CDBB2012B1A
:1035B0000DD1FB681B685B69DA43BB6813409BB2A3
:1035C000002B0CBF01230023DBB21A460CE0FB6882
:1035D0001B689B69DA43BB6813409BB2002B0CBF8E
:1035E00001230023DBB21A46FB799A4293D00023D1
:1035F00018461037BD4680BD80B584B000AFF86076
:10360000B9607A603B6071E0FB681B685B6903F43A
:103610008063B3F5806F23D1FB681B681A68FB6871
:103620001B6842F400721A60FB681B686FF48062CA
:103630005A61FB6800221A63FB68202283F83D2050
:10364000FB68002283F83E20FB681B6C43F00402F9
:10365000FB681A64FB68002283F83C20012367E0C2
:103660007B68B3F1FF3F41D0FEF746FC02463B6862
:10367000D31A7A689A4202D37B68002B36D1BB6892
:103680001B0CDBB2012B0CD1FB681B685B69DA43B6
:10369000BB6813409BB2002B14BF01230023DBB295
:1036A0000BE0FB681B689B69DA43BB6813409BB265
:1036B000002B14BF01230023DBB2002B16D0FB68C4
:1036C00000221A63FB68202283F83D20FB68002259
:1036D00083F83E20FB681B6C43F02002FB681A64F1
:1036E000FB68002283F83C20012321E0BB681B0C0F
:1036F000DBB2012B0CD1FB681B685B69DA43BB684A
:1037000013409BB2002B14BF01230023DBB20BE05C
:10371000FB681B689B69DA43BB6813409BB2002BB4
:1037200014BF01230023DBB2002B7FF46DAF002315
:1037300018461037BD4680BD80B584B000AFF86034
:10374000B9607A6034E0F86800F086F80346002B30
:1037500001D0012334E0BB68B3F1FF3F28D0FEF76E
:10376000CBFB02467B68D31ABA689A4202D3BB6885
:10377000002B1DD1FB681B685B6903F08003802B65
:1037800016D0FB6800221A63FB68202283F83D20D4
:10379000FB68002283F83E20FB681B6C43F020028C
:1037A000FB681A64FB68002283F83C20012307E0D1
:1037B000FB681B685B6903F08003802BC3D1002387
:1037C00018461037BD4680BD80B584B000AFF860A4
:1037D000B9607A6034E0F86800F03EF80346002BE8
:1037E00001D0012334E0BB68B3F1FF3F28D0FEF7DE
:1037F00083FB02467B68D31ABA689A4202D3BB683D
:10380000002B1DD1FB681B685B6903F00403042BCC
:1038100016D0FB6800221A63FB68202283F83D2043
:10382000FB68002283F83E20FB681B6C43F02002FB
:10383000FB681A64FB68002283F83C20012307E040
:10384000FB681B685B6903F00403042BC3D10023EE
:1038500018461037BD4680BD80B483B000AF786095
:103860007B681B685B6903F48063B3F5806F1BD1D1
:103870007B681B686FF480625A617B6800221A6360
:103880007B68202283F83D207B68002283F83E205D
:103890007B681B6C43F004027B681A647B6800221F
:1038A00083F83C20012300E0002318460C37BD4676
:1038B00080BC704780B586B000AF78607B68002B15
:1038C00001D1012372E27B681B6803F00103002B26
:1038D00000F08780924B5B6803F00C03042B0CD044
:1038E0008F4B5B6803F00C03082B12D18C4B5B6889
:1038F00003F48033B3F5803F0BD1894B1B6803F48D
:103900000033002B6CD07B685B68002B68D10123EF
:103910004CE27B685B68B3F5803F06D1804B1B6847
:103920007F4A43F4803313602EE07B685B68002B92
:103930000CD17B4B1B687A4A23F480331360784B9D
:103940001B68774A23F4802313601DE07B685B6863
:10395000B3F5A02F0CD1724B1B68714A43F480233E
:1039600013606F4B1B686E4A43F4803313600BE0A7
:103970006B4B1B686A4A23F480331360684B1B68E7
:10398000674A23F4802313607B685B68002B13D0A5
:10399000FEF7B2FA386108E0FEF7AEFA02463B697C
:1039A000D31A642B01D9032300E25D4B1B6803F497
:1039B0000033002BF0D014E0FEF79EFA386108E0E7
:1039C000FEF79AFA02463B69D31A642B01D9032306
:1039D000ECE1534B1B6803F40033002BF0D100E003
:1039E00000BF7B681B6803F00203002B63D04C4BC5
:1039F0005B6803F00C03002B0BD0494B5B6803F0B2
:103A00000C03082B1CD1464B5B6803F48033002B5E
:103A100016D1434B1B6803F00203002B05D07B68D3
:103A20001B69012B01D00123C0E13D4B1B6823F032
:103A3000F8027B685B69DB00394913430B603AE0AD
:103A40007B681B69002B20D0364B01221A60FEF7E1
:103A500053FA386108E0FEF74FFA02463B69D31A81
:103A6000022B01D90323A1E12D4B1B6803F00203B4
:103A7000002BF0D02A4B1B6823F0F8027B685B69AF
:103A8000DB00274913430B6015E0264B00221A6028
:103A9000FEF732FA386108E0FEF72EFA02463B697B
:103AA000D31A022B01D9032380E11D4B1B6803F0BD
:103AB0000203002BF0D17B681B6803F00803002B86
:103AC0003AD07B689B69002B19D0174B01221A60F2
:103AD000FEF712FA386108E0FEF70EFA02463B697B
:103AE000D31A022B01D9032360E10D4B5B6A03F06B
:103AF0000203002BF0D0012000F0BAFA1CE00A4BC0
:103B000000221A60FEF7F8F938610FE0FEF7F4F9C9
:103B100002463B69D31A022B08D9032346E100BFB2
:103B2000001002400000424280044242924B5B6A15
:103B300003F00203002BE9D17B681B6803F0040348
:103B4000002B00F0A6800023FB758B4BDB6903F094
:103B50008053002B0DD1884BDB69874A43F080539B
:103B6000D361854BDB6903F08053BB60BB680123E5
:103B7000FB75824B1B6803F48073002B18D17F4BBD
:103B80001B687E4A43F480731360FEF7B5F9386111
:103B900008E0FEF7B1F902463B69D31A642B01D95C
:103BA000032303E1754B1B6803F48073002BF0D0F3
:103BB0007B68DB68012B06D16F4B1B6A6E4A43F0B2
:103BC000010313622DE07B68DB68002B0CD16A4B8C
:103BD0001B6A694A23F001031362674B1B6A664A3A
:103BE00023F0040313621CE07B68DB68052B0CD117
:103BF000614B1B6A604A43F0040313625E4B1B6A0D
:103C00005D4A43F0010313620BE05B4B1B6A5A4AA7
:103C100023F001031362584B1B6A574A23F0040335
:103C200013627B68DB68002B15D0FEF765F93861FD
:103C30000AE0FEF761F902463B69D31A41F2883285
:103C4000934201D90323B1E04B4B1B6A03F00203FB
:103C5000002BEED014E0FEF74FF938610AE0FEF7D2
:103C60004BF902463B69D31A41F28832934201D99B
:103C700003239BE0404B1B6A03F00203002BEED1B1
:103C8000FB7D012B05D13C4BDB693B4A23F0805384
:103C9000D3617B68DB69002B00F08780364B5B6863
:103CA00003F00C03082B61D07B68DB69022B46D143
:103CB000334B00221A60FEF71FF9386108E0FEF767
:103CC0001BF902463B69D31A022B01D903236DE08D
:103CD000294B1B6803F00073002BF0D17B681B6A33
:103CE000B3F5803F08D1244B5B6823F400327B6836
:103CF0009B68214913434B601F4B5B6823F474128C
:103D00007B68196A7B685B6A0B431B4913434B60F2
:103D10001B4B01221A60FEF7EFF8386108E0FEF74E
:103D2000EBF802463B69D31A022B01D903233DE08D
:103D3000114B1B6803F00073002BF0D035E0104BE3
:103D400000221A60FEF7D8F8386108E0FEF7D4F8D0
:103D500002463B69D31A022B01D9032326E0064B06
:103D60001B6803F00073002BF0D11EE07B68DB6959
:103D7000012B07D1012319E0001002400070004020
:103D8000600042420B4B5B68FB60FB6803F48032CF
:103D90007B681B6A9A4206D1FB6803F470127B6849
:103DA0005B6A9A4201D0012300E0002318461837CD
:103DB000BD4680BD0010024080B584B000AF786081
:103DC00039607B68002B01D10123D0E06A4B1B686E
:103DD00003F007033A689A4210D9674B1B6823F037
:103DE000070265493B6813430B60634B1B6803F094
:103DF00007033A689A4201D00123B8E07B681B6848
:103E000003F00203002B20D07B681B6803F004033F
:103E1000002B05D0594B5B68584A43F4E06353606C
:103E20007B681B6803F00803002B05D0534B5B68CD
:103E3000524A43F460535360504B5B6823F0F002E6
:103E40007B689B684D4913434B607B681B6803F09C
:103E50000103002B40D07B685B68012B07D1474BE7
:103E60001B6803F40033002B15D101237FE07B682E
:103E70005B68022B07D1414B1B6803F00073002BDA
:103E800009D1012373E03D4B1B6803F00203002BB3
:103E900001D101236BE0394B5B6823F003027B689F
:103EA0005B68364913434B60FEF726F8F8600AE07A
:103EB000FEF722F80246FB68D31A41F28832934299
:103EC00001D9032353E02D4B5B6803F00C027B68A0
:103ED0005B689B009A42EBD1274B1B6803F00703FA
:103EE0003A689A4210D2244B1B6823F007022249F9
:103EF0003B6813430B60204B1B6803F007033A68D1
:103F00009A4201D0012332E07B681B6803F004036E
:103F1000002B08D0194B5B6823F4E0627B68DB68F8
:103F2000164913434B607B681B6803F00803002BA2
:103F300009D0124B5B6823F460527B681B69DB007D
:103F40000E4913434B6000F021F802460B4B5B68AF
:103F50001B0903F00F030A49CB5C22FA03F3094A59
:103F60001360094B1B681846FDF784FF00231846B1
:103F70001037BD4680BD00BF002002400010024047
:103F800008820008000000200400002080B487B0F0
:103F900000AF0023FB600023BB6000237B61002394
:103FA0007B6000233B611E4B5B68FB60FB6803F09A
:103FB0000C03042B02D0082B03D027E0194B3B61E4
:103FC00027E0FB689B0C03F00F03174AD35C7B6070
:103FD000FB6803F48033002B10D0114B5B685B0C43
:103FE00003F00103114AD35CBB607B680D4A03FBFD
:103FF00002F2BB68B2FBF3F37B6104E07B680C4A1E
:1040000002FB03F37B617B693B6102E0054B3B6193
:1040100000BF3B6918461C37BD4680BC704700BFD7
:104020000010024000127A0020820008308200084E
:1040300000093D0080B400AF024B1B681846BD4626
:1040400080BC70470000002080B500AFFFF7F2FF92
:104050000246054B5B681B0A03F007030349CB5C70
:1040600022FA03F3184680BD0010024018820008AF
:1040700080B485B000AF78600A4B1B680A4AA2FB87
:1040800003235B0A7A6802FB03F3FB6000BFFB6853
:104090005A1EFA60002BF9D100BF00BF1437BD468D
:1040A00080BC704700000020D34D6210002B2DE92A
:1040B000F0471F46BBBF03F100431F4600232D23DB
:1040C00088B01446129A109D1370149BDDF84CA012
:1040D00023F02008B8F1460F05D0B8F1450F00D104
:1040E0000135022300E0032307AA049206AACDE9C2
:1040F00002A2CDE9003522463B4600F099FEB8F118
:10410000470F064602D1119BDB0722D5B8F1460FB7
:1041100006EB050910D13378302B0AD10022002399
:1041200020463946FCF740FC18B9C5F10105CAF82C
:104130000050DAF800309944002200232046394626
:10414000FCF732FC08B1CDF81C903022079B4B45A0
:1041500007D33046079B159A9B1B136008B0BDE838
:10416000F087591C07911A70F0E70346F7B500294C
:1041700003F8022BB6BF2D222B2249420929427097
:104180002ADD0DF1070217460A2691FBF6F5944643
:1041900006FB151430340CF8014C0C46632C2946F0
:1041A00002F1FF32F1DC3031ACF1020402F8011C03
:1041B0002246411CBA420AD30DF10902A2EB0C02BD
:1041C000BC4288BF00221344181A03B0F0BD12F895
:1041D000015B01F8015FEDE7302330318370C1707E
:1041E000031DF1E72DE9F04F91B00C46DDF8688032
:1041F00016461F46054600F0FFFC03681846099363
:10420000FBF7A6FF00230E93D8F800300A9007337F
:1042100023F0070303F1080294F81890D4F800B0D3
:10422000C8F80020D3E900A852464346C4E9122347
:1042300028F000430B934FF0FF3250469C4B0B99F4
:10424000FCF7E4FB70BB4FF0FF325046984B0B99E4
:10425000FCF7BEFB30BB0022002350464146FCF772
:10426000ADFB10B12D2384F84330924A924BB9F143
:10427000470F94BF9046984603234FF0000A2361EE
:104280002BF00403236033462146284600970FAAEB
:1042900000F0D6F9013040F090804FF0FF3011B0BF
:1042A000BDE8F08F5246434650464146FCF7AEFB10
:1042B00048B1B8F1000FB8BF2D23804AB8BF84F8C9
:1042C00043307F4BD3E7636809F0DF015A1C42D1CA
:1042D00006236360002206920EAACDE904920DAA7D
:1042E0004BF4806303920DF13302CDE90132236078
:1042F000636852460093284643460B91FFF7D6FE6B
:104300000B99804647290D9908D1C81C02DB6368C8
:10431000994240DDA9F102095FFA89F9B9F1650F07
:104320001FD84A46013904F150000D91FFF71DFFD7
:104330000E9A82461318012A236102DC2268D207F2
:1043400001D5013323619DF83330002B9BD02D2301
:1043500084F8433097E74729BCD1002BBAD1012319
:10436000B7E7B9F1660F18D1002963680BDD216149
:1043700013B92268D00702D501330B4423614FF0F3
:10438000000AA165DFE713B92268D20701D502331D
:10439000F4E70123F2E74FF067090E9B994205DB32
:1043A00023682161D807EAD54B1CE7E70029CCBF79
:1043B0000122C1F102021344E0E723685A0507D441
:1043C0002369424631462846B84701302BD164E77D
:1043D000B9F1650F40F2DD80D4E91201002200231B
:1043E000FCF7E2FA002833D0012331462846354A4B
:1043F000B84701303FF451AFDDE90D239A4202DBAB
:104400002368D8070FD5DDE9092331462846B84788
:1044100001303FF442AF4FF0000804F11A090E9B3F
:10442000013B434509DC23689B0700F10481E068F8
:104430000F9B9842B8BF184631E701234A463146E0
:104440002846B84701303FF428AF08F10108E6E7F5
:104450000D9B002B38DC012331462846194AB8470A
:1044600001303FF41AAFDDE90D32134302D1236866
:10447000D907D8D5DDE9092331462846B8470130A8
:104480003FF40BAF4FF0000904F11A0A0D9B5B4299
:104490004B4501DC0E9B94E70123524631462846EA
:1044A000B84701303FF4F9AE09F10109EEE700BF6A
:1044B000FFFFEF7F32820008368200083A82000850
:1044C0003E820008428200080E9AA36D9A42A8BF5D
:1044D0001A46002A914637DC4FF0000B29EAE979A9
:1044E00004F11A02D4F858A0AAEB09035B4533DCA7
:1044F000DDE90D239A423BDB2368DA0738D4DDE996
:104500000D32A2EB0309A2EB0A029145A8BF914626
:10451000B9F1000F34DC4FF0000829EAE97904F121
:104520001A0ADDE90D239B1AA3EB090343457FF724
:104530007AAF0123524631462846B84701303FF44E
:10454000ACAE08F10108ECE7134631464246284676
:10455000B8470130C0D1A0E60123314628460B926E
:10456000B84701303FF499AE0B9A0BF1010BB9E754
:104570003146DDE909232846B8470130BFD18CE632
:104580004B463146284608EB0A02B8470130C2D1F3
:1045900083E60E9A012A01DCDB0739D50123424666
:1045A00031462846B84701303FF477AEDDE90923AC
:1045B00031462846B84701303FF46FAED4E91201C6
:1045C00000220023DDF83890FCF7EEF9D8B909F1A4
:1045D000FF3308F1010231462846B84701300ED1B9
:1045E0005BE601234A4631462846B84701303FF48E
:1045F00054AE08F101080E9B013B4345F1DC5346E4
:1046000004F15002DEE64FF0000804F11A09F2E767
:1046100001234246DFE701234A4631462846B84790
:1046200001303FF43AAE08F10108E3680F995B1AD4
:104630004345F0DCFBE64FF0000804F11909F4E70C
:104640002DE9F047164699468A680B69074693425A
:10465000B8BF1346336091F843200C46DDF8208044
:104660000AB1013333602368990642BF33680233CD
:104670003360256815F0060506D104F1190AE368D0
:1046800032689B1AAB422BDC94F84320131E22683D
:1046900018BF0123920630D44946384604F143023C
:1046A000C047013023D02368226903F00603042B9E
:1046B00014BF002533684FF0000608BFE56804F119
:1046C0001A0408BFED1A54F8123C08BF25EAE57534
:1046D0009342C4BF9B1AED18B5421AD1002008E0DE
:1046E0000123524649463846C047013003D14FF0B6
:1046F000FF30BDE8F0870135C1E73020E11881F8CF
:1047000043005A1C94F845102244023382F84310A7
:10471000C2E70123224649463846C0470130E6D069
:104720000136D9E72DE9FF470F7E9146782F804665
:104730000C469A460C9D01F1430207D8622F0AD815
:10474000002F00F0D580582F00F0C18004F1420501
:1047500084F842703AE0A7F16303152BF6D801A163
:1047600051F823F0BD470008D14700084D47000825
:104770004D4700084D4700084D470008D147000845
:104780004D4700084D4700084D4700084D470008B9
:10479000D7480008FD470008914800084D47000829
:1047A0004D470008F94800084D470008FD4700083C
:1047B0004D4700084D470008994800082B681A1D0E
:1047C0001B682A6004F1420584F842300123A0E00E
:1047D00020682B68070603F10401296001D51E68D3
:1047E00003E04606FBD5B3F90060002E03DA2D2363
:1047F000764284F843300A23594812E02B68206837
:10480000191D2960050601D51E6802E04106FBD589
:104810001E886F2F0CBF08230A235148002184F8FB
:1048200043106568002DA8BF2168A560A4BF21F0D2
:10483000040121600EB9002D4BD01546B6FBF3F1F3
:1048400003FB1167C75D05F8017D3746BB420E4685
:10485000F4D9082B0BD12368DE0708D523696168DA
:104860009942DEBF302305F8013C05F1FF35521BAC
:1048700022614B4621464046CDF800A003AAFFF72F
:10488000DFFE01304AD14FF0FF3004B0BDE8F087C1
:10489000236843F0200323607827324884F845706A
:1048A000236829681F0651F8046B02D45F0648BFCD
:1048B000B6B2DF0748BF43F02003296048BF23603A
:1048C0001EB9236823F0200323601023A6E72448A1
:1048D000E4E71546BDE72B682668181D6169286066
:1048E00035061B6801D5196002E07006FBD51980FA
:1048F000002315462361BCE72B6800211A1D2A609E
:104900001D686268284600F0EEF908B1401B60603F
:1049100063682361002384F84330AAE72A464946A6
:1049200040462369D0470130ADD023689B0713D49C
:10493000E068039B9842B8BF1846A6E701233246B9
:1049400049464046D04701309DD00135E368039980
:104950005B1AAB42F2DCEBE7002504F11906F5E740
:104960004482000855820008002310B50446C0E9BF
:104970000033C0E90433836081814366C28183616F
:10498000194608225C3000F02EF90D4B2462636258
:104990000C4BA3620C4BE3620C4B23630C4B9C420D
:1049A00006D003F16802944202D0D0339C4205D174
:1049B00004F15800BDE8104000F092B910BD00BFEE
:1049C0002D4B00084F4B0008874B0008AB4B0008ED
:1049D000D0060020024A0349034800F069B800BF2E
:1049E0000C000020956600081800002041680C4B60
:1049F00010B59942044601D001F04CFEA168094B64
:104A0000994202D0204601F045FEE168064B9942EA
:104A100004D02046BDE8104001F03CBE10BD00BFF0
:104A2000D006002038070020A007002010B50B4B4F
:104A30000B4C0C4A20461A6004210022FFF794FF19
:104A400004F1680001220921FFF78EFF04F1D00074
:104A50000222BDE810401221FFF786BF080800209F
:104A6000D0060020D5490008014800F03AB900BF3F
:104A700011080020014800F035B900BF11080020DE
:104A800010B50446FFF7F0FF236A1BB1BDE81040E4
:104A9000FFF7F0BF044B2362044B1B68002BF5D1DA
:104AA000FFF7C4FFF2E700BFED4900080808002047
:104AB0002DE9F8430746884614460026D4E90195B7
:104AC000B9F1010905D52468002CF7D13046BDE8BD
:104AD000F883AB89012B07D9B5F90E30013303D028
:104AE00029463846C04706436835E9E70EB46FF0FB
:104AF000004100B59CB01DAB029006900791049157
:104B00000848094953F8042B0591006802A901934C
:104B100001F040FC0022029B1A701CB05DF804EB0F
:104B200003B07047640000200802FFFF10B50C4678
:104B3000B1F90E1000F086F80028ABBF636DA389B1
:104B40001B1823F48053ACBF6365A38110BD2DE90E
:104B5000F0411F468B890546DB050C46164605D5F8
:104B600002230022B1F90E1000F05AF8A389324650
:104B700023F48053A38128463B46B4F90E10BDE8C8
:104B8000F04100F071B810B50C46B1F90E1000F00C
:104B900047F8431CA38915BF606523F4805343F491
:104BA0008053A38118BFA38110BDB1F90E1000F08E
:104BB00027B8884210B501EB020402D9844223468B
:104BC00007D8431EA14208D011F8012B03F8012F8A
:104BD000F8E7014602448A4200D110BD13F8014DA6
:104BE00002F8014DF7E703460244934200D17047B3
:104BF00003F8011BF9E70000004870475801002046
:104C000038B50023054D044608462B60FDF78AF8A9
:104C1000431C02D12B6803B1236038BD0C0800206F
:104C200038B50446084611460022054D2A601A464A
:104C3000FDF79CF8431C02D12B6803B1236038BDFB
:104C40000C08002038B50446084611460022054DE0
:104C50002A601A46FDF72DF8431C02D12B6803B1D8
:104C6000236038BD0C08002038B5044608461146BC
:104C70000022054D2A601A46FDF738F8431C02D180
:104C80002B6803B1236038BD0C080020014B186865
:104C9000704700BF6400002070B500260C4D0D4C1D
:104CA000641BA410A64209D102F0C8FB00260A4DDD
:104CB0000A4C641BA410A64205D170BD55F8043BF4
:104CC00098470136EEE755F8043B98470136F2E77E
:104CD0001886000818860008188600081C86000838
:104CE000704770477047034610B5C9B202449342FB
:104CF000184601D1002003E0047801338C42F6D13C
:104D000010BD0A44914200F1FF3300D1704710B545
:104D100011F8014B914203F8014FF9D110BD2DE973
:104D2000F74F03690C690746A3427FDB013C00F1A2
:104D3000140501F1140805EB8403019358F824309D
:104D400055F8242001339A42B2FBF3F64FEA840B64
:104D500008EB840931D34FF0000E4046AC46F246D2
:104D600050F8042B93B206FB03E34FEA124E1A0CE1
:104D70009BB206FB0E22AAEB0303DCF800A04FEA6D
:104D8000124E1FFA8AFA5344DCF800A092B2C2EB2A
:104D90001A4202EB23429BB243EA024381454FEAA7
:104DA000224A4CF8043BDBD255F80B302BB9019B5F
:104DB000043B9D421A462DD33C61384601F092F9DE
:104DC000002823DB29460020013658F8042BD1F8AF
:104DD00000C093B2C31A120C1FFA8CF00344C2EB4A
:104DE0001C4202EB23429BB243EA0243C1454FEA15
:104DF000224041F8043BE8D255F8242005EB840317
:104E000022B9043B9D421A460AD33C61304603B0A6
:104E1000BDE8F08F1268043B002ACDD1013CC8E701
:104E20001268043B002AF0D1013CEBE70020EEE7DA
:104E30002DE9F04F16461F46C46999B00546CDE9E5
:104E40000467DDF8948074B9102000F01DFE02465E
:104E5000E86120B9EF21AC4BAC4801F053FCC0E94C
:104E600001440460C460EB69196851B15A680123B8
:104E700093404A608B60284600F0FAFE0022EB69FE
:104E80001A603B1EAFBF0023012223F000430593AD
:104E9000A8BFC8F80030DDF814909D4BB8BFC8F823
:104EA000002033EA090319D142F20F73249A1360E8
:104EB000C9F31303334300F08985269B53B9954BFF
:104EC00023E0954B03930833269A1360039819B097
:104ED000BDE8F08F8F4B03930333F5E7DDE904342E
:104EE000CDE90C34DDE90C0100220023FBF75CFD69
:104EF000804660B10123249A1360269B002B00F0AA
:104F00006285864B269A1360013B0393DEE716AB5E
:104F1000019317AB00932846DDE90C2301F08AF9D1
:104F2000C9F30A548246002C7ED0DDE90C010D9BAA
:104F3000A4F2FF34C3F3130343F07F5343F440134D
:104F4000CDF84C8019460022754BFBF70DF968A38C
:104F5000D3E90023FBF7C0FA67A3D3E90023FBF7EB
:104F600005F9064620460F46FBF74CFA64A3D3E941
:104F70000023FBF7B1FA02460B4630463946FBF7F1
:104F8000F5F806460F46FBF757FD0022834600233F
:104F900030463946FBF712FD48B15846FBF732FA66
:104FA00032463B46FBF700FD08B90BF1FF3BBBF176
:104FB000160F57D8DDE90C015A4B03EBCB03D3E9AD
:104FC0000023FBF7FBFC00284ED000230BF1FF3B36
:104FD0000F93169B1B1B5A1E46BFC3F101090023EA
:104FE0004FF00009099248BF0993BBF1000F3DDB68
:104FF000099BCDF838B05B44099300230A93229BA8
:10500000092B67D8052BC4BF043B2293229BC8BF42
:105010000024A3F10203D8BF0124032B00F28680F1
:10502000DFE803F02C393756DDE916431C4404F25F
:105030003243202BC1BFC3F1400309FA03F904F244
:10504000124326FA03F3D6BFC3F1200349EA030053
:1050500006FA03F0FBF7C6F90122A1F1F873013C4F
:1050600013926FE70123B3E70F90B2E7CBF1000390
:105070000A930023A9EB0B090E93C0E700230B93BF
:10508000239B002B55DC01231A4606930893239299
:105090000BE00123F3E700230B93239B5B44069370
:1050A0000133012B0893B8BF012300210422E869D2
:1050B00002F114069E4240D94160284600F098FD56
:1050C000039000283CD1024640F2AF11164BC3E6D4
:1050D0000123E1E7012400230B9422934FF0FF33D7
:1050E0000022069308931223D1E700BFAFF300809C
:1050F00061436F63A787D23FB3C8608B288AC63FDE
:10510000FB799F501344D33F738200088A820008C2
:105110000000F07F6F82000866820008438200086A
:105120000000F83F78830008E282000801230B9317
:10513000D4E7239B06930893B7E701315200B7E702
:10514000EB69039A1A60089B0E2B00F2A880002CD2
:1051500000F0A580BBF1000F34DD9A4B0BF00F027D
:1051600003EBC2031BF4807FD3E90034CDE9103494
:105170004FEA2B1416D0DDE90C01934B0327D3E93A
:105180000823FBF7D3FACDE9040104F00F048E4E97
:1051900054B9DDE91023DDE90401FBF7C7FACDE9D5
:1051A000040129E00227F2E7E10708D5DDE9100153
:1051B000D6E90023FBF790F9CDE91001013764101F
:1051C0000836E5E700F0A580DDE90C01CBF100042D
:1051D0007C4B04F00F0203EBC203D3E90023FBF77F
:1051E0007BF902270023CDE90401774E2411002C1E
:1051F00040F08480002BD2D1DDE90434CDE91034B5
:105200000F9B002B00F08780DDE9100100226F4B1F
:10521000FBF7D4FB00287ED0089B002B7BD0069B9D
:10522000002B38DDDDE910010022694BFBF754F952
:10523000CDE90401069C0BF1FF3801373846FBF736
:10524000E1F8DDE90423FBF747F90022614BFAF7A7
:105250008DFFA1F15076CDE910011196002C5DD1A2
:10526000DDE9040100225C4BFAF77EFF02460B46A3
:10527000CDE904233346109AFBF7BEFB002840F02B
:105280009582DDE90401109A06F10043FBF796FBD5
:10529000002840F08982DDE90C34CDE90434179B05
:1052A000002BC0F25181BBF10E0F00F34D81454B35
:1052B00003EBCB03D3E90034CDE90634239B002B69
:1052C00080F2DA80089B002B00F3D68040F06B82DE
:1052D000DDE906010022404BFBF7FEF8DDE904237F
:1052E000FBF780FB089C2646002840F041823123D2
:1052F000039F0BF1010B07F8013B3DE2E20705D5E7
:10530000D6E90023FBF7E8F80123013764100836DB
:105310006DE7022770E7D846089C8FE70399294B71
:10532000214412910B9903EBC403DDE9106753E9A3
:105330000223002954D000202849FBF7F7F93B4607
:105340003246FAF711FFCDE91001039FDDE90401B0
:10535000FBF772FB0446FBF755F802460B46DDE906
:105360000401FAF701FF02460B463034CDE904236D
:10537000DDE9102307F8014BFBF720FB002873D170
:10538000DDE9042300201149FAF7EEFEDDE91023E0
:10539000FBF714FB002840F0B680129B9F423FF4BD
:1053A0007AAFDDE910010022094BFBF795F80022E6
:1053B000CDE91001DDE90401054BFBF78DF8CDE9DE
:1053C0000401C3E778830008508300080000F03F21
:1053D0000000244000001C40000014400000E03F9A
:1053E00030463946FBF778F8129BCDE91001039C53
:1053F0001493DDE90401FBF71FFB1590FBF702F89E
:1054000002460B46DDE90401FAF7AEFE159B06469F
:10541000303304F8013B129B0F469C424FF00002D0
:1054200024D1DDE91001AF4BFAF7A0FE02460B468E
:1054300030463946FBF7E0FA002863D1DDE9102356
:105440000020A849FAF790FE02460B46304639463E
:10545000FBF7B4FA00283FF41EAF149F7B1E149391
:1054600017F8013C302BF8D0C3463BE09E4BFBF7CE
:1054700033F8CDE90401BCE7039FDDE90489DDE9E8
:10548000062340464946FBF751F9FBF7D5FA044697
:10549000FAF7B8FFDDE90623FBF71EF802460B46D4
:1054A00040464946FAF760FE04F1300607F8016B02
:1054B000039EDDF820C0BE1BB44502460B4636D124
:1054C000FAF754FEDDE9062380468946FBF794FA95
:1054D00058BBDDE9062340464946FBF765FA08B1AB
:1054E000E30722D45146284600F0C2FB0023249A49
:1054F0003B700BF101031360269B002B3FF4E6ACDD
:105500001F60E3E427463B461F4613F8012D392A66
:1055100007D1039A9A42F7D13022039908F1010882
:105520000A701A7801321A709EE7D846EBE700221B
:105530006D4BFAF7D1FF0022002380468946FBF726
:1055400033FA00289BD0CDE70B9A002A00F0C480E4
:10555000229A012A00F3A880139A002A00F0A08062
:1055600003F233434F460A9C099A01211A44284604
:105570009944099200F032FC06465FB1099B002B6A
:1055800008DDBB42A8BF3B46099AA9EB0309FF1AF5
:10559000D31A09930A9BF3B10B9B002B00F0A08058
:1055A000002C10DD31462246284600F0D5FC52463C
:1055B00001460646284600F027FC8046514628460C
:1055C00000F056FBC2460A9B1A1B04D051462846DF
:1055D00000F0C2FC82460121284600F0FFFB0E9B32
:1055E0000446002B40F382801A460146284600F00C
:1055F000B3FC229B0446012B7BDD4FF0000823699E
:1056000004EB8303186900F09BFBC0F12000099BA9
:10561000184410F01F0000F09280C0F12003042B0A
:1056200040F38580099BC0F11C000344814407447A
:105630000993B9F1000F05DD51464A46284600F0AE
:10564000E5FC8246099B002B05DD21461A462846CB
:1056500000F0DCFC04460F9B002B72D02146504624
:1056600000F040FD00286CDA002351460A2228464B
:1056700000F020FB0B9B82460BF1FF3B002B00F060
:10568000AC81002331460A22284600F013FB069B1A
:105690000646002B00F39380229B022B59DC8EE000
:1056A000169BC3F136035DE7089B5C1E0A9BA34271
:1056B000BFBF0A9B0E9AE31AD218A8BF1C1B089BF7
:1056C000BEBF0A940E920024002BB5BFA9EB0307BE
:1056D0004F460023089B47E74F460A9C0B9E4CE72A
:1056E0000A9A73E70000E03F00002440229B012B50
:1056F00018DC049BB3B9059BC3F3130393B9059B53
:1057000023F000431B0D1B057BB14FF00108099BE3
:1057100009F10109013309930E9B002B7FF46FAF50
:10572000012074E74FF00008F6E79846F4E780D0D0
:10573000099A1C331A4499441F44099279E7034695
:10574000F6E7089B002B34DC229B022B31DD089B03
:105750000693069B63B921460522284600F0AAFA63
:1057600001460446504600F0BDFC00283FF7BFAD9F
:10577000239B039F6FEA030B4FF000082146284646
:1057800000F076FA002E3FF4ADAEB8F1000F05D070
:10579000B04503D04146284600F06AFA3146284613
:1057A00000F066FA9EE600242646E1E7C346264658
:1057B0009DE50B9B002B00F0C880089B0693002FF3
:1057C00005DD31463A46284600F020FC0646B8F191
:1057D000000F5BD02846716800F00AFA074628B926
:1057E000024640F2EF21814BFFF736BB326906F1EA
:1057F0000C01023292000C30FFF783FA0122394685
:10580000284600F003FCB0460646039B039A01338A
:105810000893069B13440B93049B03F001030A9324
:10582000089B2146013B50460493FFF778FA414616
:10583000069000F13009504600F054FC32460990C1
:105840002146284600F06AFCC268074602BB0146B2
:10585000504600F047FC0246394628460C9200F0BC
:1058600007FA229B0C9A089F43EA02010A9B1943FC
:1058700010D1B9F1390F29D0099B002B02DD069B0D
:1058800003F13109049B83F8009077E73046BAE7CB
:105890000122E1E7099B002B04DB22990B430A99C3
:1058A0000B4320D1002AEDDD51460122284600F0AD
:1058B000ADFB2146824600F015FC002803DCE1D157
:1058C00019F0010FDED0B9F1390FD8D13923049A7C
:1058D00013703B461F4617F8012C013B392A6BD049
:1058E00001321A704AE7002A07DDB9F1390FEDD00D
:1058F000049A09F10103137040E7089B0B9A03F81F
:10590000019C934242D0514600230A22284600F0CF
:10591000D1F9B04582464FF000034FF00A024146EC
:10592000284607D100F0C6F980460646089B013399
:10593000089375E700F0BEF93146804600230A223D
:10594000284600F0B7F90646F0E7089B0693039F48
:1059500021465046FFF7E3F9039B00F1300907F8B1
:10596000019BFA1A069B934207DD514600230A2247
:10597000284600F09FF98246EAE7069B4FF00008B0
:10598000002BCCBF1F460127039B1F445146012219
:10599000284600F03BFB2146824600F0A3FB00288E
:1059A00097DC02D119F0010F93D13B461F4613F843
:1059B000012D302AFAD0E1E6039A9A428AD13123A6
:1059C0000BF1010B97E70A4BFFF79FBA269B002BC1
:1059D0007FF477AA074BFFF798BA069B002BB6DC3B
:1059E000229B022B3FF7B5AEB1E700BFE282000871
:1059F000428200086682000838B50546002940D07A
:105A000051F8043C0C1F002BB8BFE41800F0E4F878
:105A10001C4A136833B9636014602846BDE83840F7
:105A200000F0E0B8A34208D9206821188B4201BFDA
:105A300019685B6809182160EDE71A465B680BB1CD
:105A4000A342FAD911685018A0420BD12068014432
:105A5000501883421160E0D118685B6808441060F8
:105A60005360DAE702D90C232B60D6E720682118AF
:105A70008B4201BF19685B6809182160636054603C
:105A8000CBE738BD14080020024B0146186800F02F
:105A900023B800BF6400002070B50E4E0C4631687C
:105AA000054611B900F01EFE30602146284600F080
:105AB00019FE431C0AD0C41C24F00304A04207D0E2
:105AC000211A284600F00EFE013001D14FF0FF34BC
:105AD000204670BD180800202DE9F843CD1C25F0A4
